:020000040000FA
:100000000C9463000C948B000C948B000C948B006C
:100010000C948B000C948B000C948B000C948B0034
:100020000C948B000C948B000C948B000C948B0024
:100030000C948B000C948B000C948B000C948B0014
:100040000C94471C0C948B000C94151C0C94EF1B07
:100050000C948B000C948B000C948B000C948B00F4
:100060000C94911C0C948B000000000024002700CD
:100070002A0000000000250028002B0000000000DE
:1000800023002600290004040404040404040202DA
:100090000202020203030303030301020408102007
:1000A0004080010204081020010204081020000012
:1000B0000008000201000003040700000000000027
:1000C0000000D71D062611241FBECFEFD8E0DEBFEB
:1000D000CDBF23E0ACE7B1E001C01D92A03DB20767
:1000E000E1F711E0A0E0B1E0E6E1F6E502C005903D
:1000F0000D92AC37B107D9F710E0C2E6D0E004C0EA
:100100002197FE010E94C928C136D107C9F70E9474
:100110006A1E0C94FE2A0C9400008091F0019091CC
:10012000F101891B990B08952F923F924F925F9294
:100130006F927F928F929F92AF92BF92CF92DF92F7
:10014000EF92FF920F931F93CF93DF93CDB7DEB75C
:10015000AA970FB6F894DEBF0FBECDBF0D871D8BDB
:10016000298F3A8F4B8F5C8F6F8F7BA3FE8EED8E26
:10017000E0917803F0917903892B21F0E0917A03E3
:10018000F0917B03FF27EE0FFF1FEE0FFF1FE458D8
:10019000FC4F608171818281938124E630E040E0F0
:1001A00050E00E94A727522E632E742E852E962E85
:1001B0007A8B898B492E86017501110FEE08FE2C72
:1001C00087019501A6016E2D7E2D8E2D9E2D0FE1AE
:1001D0000E947228A12CEAECBE2EFAE9CF2EABE3E6
:1001E000DA2EE12CF12C00E010E00E94D427A52C9F
:1001F000B62CC72CD82CE92CFA880989142D0E941A
:100200004F270FE10E948D2829833A834B835C831B
:100210006D837E838F83988729813A814B815C81AE
:10022000550F220B322FA90129873A874B875C870C
:10023000252D362D472D582D692D7F2D8989942DFB
:10024000A980BA80CB80DC80E984FE2C0E2D1E2D87
:100250000E94A82829833987498B5A8B6B8B7C8B0A
:100260001C016D847D88898C9A8C3C8D3D8B4F8CD4
:100270005BA09301A4016B8D7D89C20121153440DF
:100280004B46544F644171058105910569F060F05A
:10029000612C24E0722E3BE6832E44EF942EB4E1D1
:1002A000BB8F1D8A412C512CEB8DEF8F9301A40144
:1002B0006E2F7D89C201211538454744584F6D4046
:1002C00071058105910560F4612C08E5702E87E4C5
:1002D000882E98EF992E2DE02F8F1D8A412C512CBE
:1002E000A980B984C988DA88EB88FC8881019301E8
:1002F000A4016F8D7D89C2010E940528298F3A8F44
:100300004B8F5C8F2D873E874F87588B8D859E85C1
:10031000AF85B8891FE0A12E0F97A105B10558F050
:100320002D853E854F8558892B3531054105510571
:10033000B8F0BAE5AB2EB12CC12CD12CE12CF12CAC
:1003400000E010E02981398549895A896B897C89C7
:10035000C1010E944F2739014A016F8F7D8B2C010B
:10036000A980B984C988DA88EB88FC888101930167
:10037000A4016F8D7D89C2010E940328E0E4AE2EA6
:10038000F2E4BF2EAFE0CA2ED12CE12CF12C00E01C
:1003900010E00E944F27A980B984C988DA88EB88C9
:1003A000FC8881010E94052849014CA35BA3C90177
:1003B000DA0121E030E040E050E00097A105B1050E
:1003C00021F020E432E44FE050E02D8B3E8B4F8B48
:1003D000588FBC01CD0127E0660F771F881F991F3A
:1003E0002A95D1F72D893E894F89588D0E940E2775
:1003F00029013A016F8F78A389A39AA3A980B984B0
:10040000C988DA88EB88FC88810194014CA15BA142
:1004100060E070E080E090E00E944F272BA33CA3B7
:100420004DA35EA36FA378A789A79AA78D859E8504
:10043000AF85B88937E0880F991FAA1FBB1F3A956F
:10044000D1F79250A109B109840D951DA61DB71DC4
:10045000ED8DFE8D80839183A283B3832F8D38A190
:1004600049A15AA124833583468357832D893E8928
:100470004F89588D2087318742875387298D3A8D40
:100480004B8D5C8D60E070E080E090E00E944F2733
:1004900029013A014B01898799838D899E89AF890A
:1004A000B88D5C016D01E12CF12C00E010E02BA176
:1004B0003CA14DA15EA16FA178A589A59AA50E9436
:1004C000052859016A017B018C019201A301B40145
:1004D000898599810E94A828AA960FB6F894DEBF54
:1004E0000FBECDBFDF91CF911F910F91FF90EF9085
:1004F000DF90CF90BF90AF909F908F907F906F9044
:100500005F904F903F902F9008952F923F924F927F
:100510005F926F927F928F929F92AF92BF92CF9293
:10052000DF92EF92FF920F931F93CF93DF93CDB79C
:10053000DEB765970FB6F894DEBF0FBECDBF2D8333
:100540003E834F83588769877A878B879C87A982E8
:10055000BF86C88AD98AEA8AFB8A0C8B1D8B9E8645
:100560008D86211506ED300701E140070EE75007A3
:1005700003E0600771058105910511F008F009C1DC
:100580002F37304F4A4F5240610571058105910563
:1005900009F008F469C19501A601B7018C899D890C
:1005A000A0E00E94BD2809F00DC1AD80BE80CF80C3
:1005B000D884E984FA840B851C8520E033E245E782
:1005C0005EEE64E170E080E090E00E940528C901E1
:1005D000DA01A901BD0120FF99C04F5F5F4F6F4F46
:1005E0007F4F49835A836B837C834F3F510561055D
:1005F000710540F08EEF90E0A0E0B0E089839A832F
:10060000AB83BC83E980FA800B811C81A801970130
:10061000AD80BE80CF80D884E984FA840B851C85A8
:1006200060E070E080E090E00E944F2729013A01ED
:100630004B011C01211504E030070BE6400704EFD5
:10064000500704E1600771058105910509F008F480
:100650007DC089819A81AB81BC810297A109B109D2
:1006600089839A83AB83BC831C012D010B85910187
:10067000A20160E070E080E090E00E944F27290135
:100680003A014B011C0189819A81AB81BC81992778
:10069000AA27BB27ED85FE8580839183A283B38340
:1006A000148215821682178210861186128613868E
:1006B0009201A301B401C10165960FB6F894DEBFA3
:1006C0000FBECDBFDF91CF911F910F91FF90EF90A3
:1006D000DF90CF90BF90AF909F908F907F906F9062
:1006E0005F904F903F902F90089545E050E060E07C
:1006F00070E01D8286ED8E8391E19F83AEE7A8872F
:10070000B3E0B9871A861B861C8667CF0597A105BB
:10071000B10509F066CF16E0E12EF12C00E010E003
:10072000E982FA820B831C836DCF46E057E060E0DC
:1007300070E0E0E8ED83F0EFFE830AEF0F8312E054
:10074000188719861A861B861C864BCF2F3F374584
:100750004744584F6D4071058105910511F008F02F
:1007600092CF89819A81AB81BC810296A11DB11D76
:1007700089839A83AB83BC831C012D01AD80BE802D
:10078000CF80D884E984FA840B851C8570CF412CF6
:1007900063C029813F85488959896A897B898C8909
:1007A0009D89A0E00E94BD2809F49FCF1D82B6ED6F
:1007B000BE83E1E1EF83FEE7F88703E009871A864D
:1007C0001B861C86AD80BE80CF80D884E984FA84E5
:1007D0000B851C8529813F85488959896A897B89D0
:1007E0008C899D890E94032829013A014B011C0133
:1007F000A0E00E94BD2859F629813F854889598982
:100800006A897B898C899D890E940528022F132F74
:10081000242F352FD901C8010697A109B109893FB5
:100820009105A105B10508F043CF10E030E020E0CC
:10083000AD85BE850D931D932D933C931397FD01BC
:10084000148215821682178218961D921D921D928F
:100850001C921B9744244394512C612C712C812CA5
:10086000912C212C312C24CF29813F85488959890D
:100870006A897B898C899D89A0E00E94BD2809F442
:1008800054CF10E81D8380EF8E839AEF9F83A2E000
:10089000A887198694CFDF92EF92FF920F931F9350
:1008A000CF93DF93FC01E080F18002811381D4813A
:1008B000C581B681D7809701A8016D2F7C2F8B2F22
:1008C0009D2D285938424C4151096109710981090E
:1008D0009109273938424C4151056105710581055F
:1008E000910509F0D0F49701A8016D2F7C2F8B2F73
:1008F0009D2D07E00E947228208331834283538319
:10090000648375838683978387E0DF91CF911F91FE
:100910000F91FF90EF90DF9008959701A8016D2F40
:100920007C2F8B2F9D2D2053314548435109610960
:100930007109810991092F323145484351056105FB
:1009400071058105910509F098F49701A8016D2FB3
:100950007C2F8B2F9D2D06E00E94722820833183EF
:1009600042835383648375838683978386E0CDCFE8
:100970009701A8016D2F7C2F8B2F9D2D2056324A79
:100980004047510961097109810991092F35324A9E
:1009900040475105610571058105910509F098F4FD
:1009A0009701A8016D2F7C2F8B2F9D2D05E00E94B4
:1009B00072282083318342835383648375838683C3
:1009C000978385E0A2CF9701A8016D2F7C2F8B2FF5
:1009D0009D2D205C3444414E510961097109810902
:1009E00091092F3B3444414E510561057105810544
:1009F000910509F098F49701A8016D2F7C2F8B2F9A
:100A00009D2D04E00E94722820833183428353830A
:100A1000648375838683978384E077CF9701A801E9
:100A20006D2F7C2F8B2F9D2D20583948424C5140E3
:100A300061097109810991092F373948424C5140A8
:100A4000610571058105910509F098F49701A801E8
:100A50006D2F7C2F8B2F9D2D03E00E947228208309
:100A6000318342835383648375838683978383E0D2
:100A70004CCF9701A8016D2F7C2F8B2F9D2D3351CB
:100A80004548534061097109810991092F3F32415D
:100A900045485340610571058105910509F098F4B9
:100AA0009701A8016D2F7C2F8B2F9D2D02E00E94B6
:100AB00072282083318342835383648375838683C2
:100AC000978382E022CF9701A8016D2F7C2F8B2F77
:100AD0009D2D36524A40574061097109810991099B
:100AE0002F3F35424A405740610571058105910508
:100AF00009F098F49701A8016D2F7C2F8B2F9D2D65
:100B000001E00E94722820833183428353836483EF
:100B100075838683978381E0F8CE80E0F6CE2F92AE
:100B20003F924F925F926F927F928F929F92AF927D
:100B3000BF92CF92DF92EF92FF920F931F93CF93CA
:100B4000DF93CDB7DEB76C970FB6F894DEBF0FBE5C
:100B5000CDBF322E3D87242E5E872B013C01A9821A
:100B6000BF86C88AD98AEA8AFB8A0C8B1D8B988E2D
:100B70008F8A211501EC30070AE140070DE3500789
:100B800005E0600771058105910509F0A0F52F3793
:100B900010EF31071AEF410712E0510761057105A7
:100BA0008105910509F008F4B4C12F3F354D41414D
:100BB0005E47634071058105910509F008F48FC017
:100BC00029813F85488959896A897B898C899D89D2
:100BD000A0E0992493940E94BD2809F08EC011E0F2
:100BE0001E8B94E0892E912CA12CB12C89869A869B
:100BF000AB86BC862FC0312CB1ECBD872AE1222EFA
:100C0000EDE3EE8735E0432E512C612C712CD8CFCB
:100C1000A32CBD84C22CDE847201830120E034E069
:100C20004BE654EF64E170E080E090E00E9405281C
:100C3000122FB32FF42FE52FA7E00E94BD2821F437
:100C400016E0B0E0F0E0E0E0CF011987BA879B87BB
:100C5000EC871E8A89849A84AB84BC84A5019401A4
:100C600060E070E0CB01A32CBD84C22CDE84720155
:100C7000830129833A834B835C836D837E838F83D7
:100C8000988760E070E080E090E00E944F27298321
:100C90003F87488B598B6A8B7B8B8C8B9D8B0E8906
:100CA000C12CD12C7601C39440E050E0BA01013050
:100CB00009F0A9C0AF89B88D1D921D921D921C929A
:100CC0001397FD01148215821682178281E090E04D
:100CD000A0E0B0E080879187A287B387DEC029813A
:100CE0003F85488959896A897B898C899D89A0E0DB
:100CF0000E94BD2809F48CCF912CA32CBD84C22C5A
:100D0000DE847201830129813F85488959896A8976
:100D10007B898C899D890E94052829873A874B8782
:100D20005C8729853A854B855C8506E0A02EB12C31
:100D3000263031054105510568F089859A85AB85D6
:100D4000BC8589309740A105B105D0F0B8E0AB2E45
:100D500017E0B12EC12CD12CE12CF12C00E010E0D9
:100D600029813F85488959896A897B898C899D8930
:100D70000E940528322E3D87242E5E872B013C01E0
:100D8000A32CBD84C22CDE847201830129813F859E
:100D9000488959896A897B898C899D890E940328A1
:100DA000E0E4AE2EF2E4BF2EAFE0CA2ED12CE12C4F
:100DB000F12C00E010E00E944F27A32CBD84C22C30
:100DC000DE84720183010E940528A32FF42FE52FF2
:100DD000422F5A2F6F2F7E2FA0E4CA2EA2E4DA2EC4
:100DE000AFE0EA2EF12C411551056105710521F4A2
:100DF000C12CD12C7601C394AA24A3949A1409F48B
:100E00006DC001E00E8BCB01BA0117E0660F771FB2
:100E1000881F991F1A95D1F7A70196010E940E27E6
:100E2000298F3A8F4B8F5C8F89849A84AB84BC84E2
:100E300007E0880C991CAA1CBB1C0A95D1F79501E8
:100E4000840112502109310948015901298D3A8D37
:100E50004B8D5C8D280D391D4A1D5B1DAF89B88DEA
:100E60002D933D934D935C931397FD01648375839C
:100E7000868397831896CD92DD92ED92FC921B9714
:100E80008E88882051F039829D849F86288AAE847E
:100E9000A98A4A8A5B8A6C8A7D8A29813F8548892A
:100EA00059896A897B898C899D896C960FB6F894DB
:100EB000DEBF0FBECDBFDF91CF911F910F91FF908D
:100EC000EF90DF90CF90BF90AF909F908F907F90EA
:100ED0006F905F904F903F902F900895AF89B88D9D
:100EE0001D921D921D921C921397FD011482158272
:100EF0001682178281E090E0A0E0B0E080879187C1
:100F0000A287B3873982FD85FF87288A8E84898AE4
:100F1000C0CF29813F85488959896A897B898C8915
:100F20009D89A0E0E0E83E2EF0EFFD87FAEF2F2E3E
:100F300002E00E87412C512C612C712C0E94BD289F
:100F400009F0DACE18E0B7E07DCEDF92EF92FF92A3
:100F50000F931F93CF93DF93FC01E080F180028118
:100F60001381D481C581B681D7809701A8016D2FE7
:100F70007C2F8B2F9D2D20583A4146405109610905
:100F80007109810991092F373A41464051056105A0
:100F900071058105910509F0D0F49701A8016D2F25
:100FA0007C2F8B2F9D2D07E00E9472282083318398
:100FB00042835383648375838683978387E0DF91BD
:100FC000CF911F910F91FF90EF90DF9008959701BF
:100FD000A8016D2F7C2F8B2F9D2D35534C4051092F
:100FE00061097109810991092F3F34434C40510532
:100FF000610571058105910509F098F49701A80133
:101000006D2F7C2F8B2F9D2D06E00E947228208350
:10101000318342835383648375838683978386E019
:10102000CECF9701A8016D2F7C2F8B2F9D2D3A5687
:101030004841510961097109810991092F3F3946D8
:1010400048415105610571058105910509F098F444
:101050009701A8016D2F7C2F8B2F9D2D05E00E94FD
:10106000722820833183428353836483758386830C
:10107000978385E0A4CF9701A8016D2F7C2F8B2F3C
:101080009D2D345D40435109610971098109910920
:101090002F3F334D40435105610571058105910591
:1010A00009F098F49701A8016D2F7C2F8B2F9D2DAF
:1010B00004E00E9472282083318342835383648337
:1010C00075838683978384E07ACF9701A8016D2F7B
:1010D0007C2F8B2F9D2D385A41465109610971098A
:1010E000810991092F3F374A414651056105710534
:1010F0008105910509F098F49701A8016D2F7C2FC7
:101100008B2F9D2D03E00E94722820833183428320
:101110005383648375838683978383E050CF9701DD
:10112000A8016D2F7C2F8B2F9D2D3055434C5109DD
:1011300061097109810991092F3F3F44434C5105D1
:10114000610571058105910509F098F49701A801E1
:101150006D2F7C2F8B2F9D2D02E00E947228208303
:10116000318342835383648375838683978382E0CC
:1011700026CF9701A8016D2F7C2F8B2F9D2D305AE4
:101180004648514061097109810991092F3F3F4942
:1011900046485140610571058105910509F098F4B3
:1011A0009701A8016D2F7C2F8B2F9D2D01E00E94B0
:1011B00072282083318342835383648375838683BB
:1011C000978381E0FCCE80E0FACE089508950895DB
:1011D000AF92BF92CF92DF92EF92FF920F931F9345
:1011E000CF93DF936C017B018B01040F151FEB0183
:1011F0005E01AE18BF08C017D10759F06991D6013A
:10120000ED91FC910190F081E02DC6010995892BAB
:1012100079F7C501DF91CF911F910F91FF90EF906A
:10122000DF90CF90BF90AF900895FC01538D448D17
:10123000252F30E0842F90E0821B930B541710F081
:10124000CF96089501970895FC01918D828D98178E
:1012500061F0A28DAE0FBF2FB11D5D968C91928D66
:101260009F5F9F73928F90E008958FEF9FEF089597
:101270002FB7F8948091EC019091ED01A091EE01CF
:10128000B091EF012FBF80936E0290936F02A093F5
:101290007002B093710286E692E00E94240997FFE3
:1012A00026C02FB7F8948091EC019091ED01A091A8
:1012B000EE01B091EF012FBF40916E0250916F028D
:1012C0006091700270917102841B950BA60BB70B95
:1012D00040916A0250916B0260916C0270916D02B4
:1012E00084179507A607B707B0F28FEF9FEF089511
:1012F000FC01918D828D981731F0828DE80FF11DE0
:10130000858D90E008958FEF9FEF0895FC01918DFA
:10131000228D892F90E0805C9F4F821B91098F73F3
:101320009927089586E692E00E94860921E0892B9C
:1013300009F420E0822F089580E090E0892B29F0C5
:101340000E94920981110C9400000895FC01A48D63
:10135000A80FB92FB11DA35ABF4F2C91848D90E0D7
:1013600001968F739927848FA689B7892C93A089BA
:10137000B1898C91837080648C93938D848D981344
:1013800006C00288F389E02D80818F7D80830895D7
:10139000EF92FF920F931F93CF93DF93EC0181E0C5
:1013A000888F9B8D8C8D98131AC0E889F98980816C
:1013B00085FF15C09FB7F894EE89FF896083E8899F
:1013C000F98980818370806480839FBF81E090E091
:1013D000DF91CF911F910F91FF90EF900895F62E1E
:1013E0000B8D10E00F5F1F4F0F731127E02E8C8DB8
:1013F0008E110CC00FB607FCFACFE889F9898081FD
:1014000085FFF5CFCE010E94A609F1CFEB8DEC0F41
:10141000FD2FF11DE35AFF4FF0829FB7F8940B8F19
:10142000EA89FB8980818062CFCFCF93DF93EC0183
:10143000888D8823B9F0AA89BB89E889F9898C91BC
:1014400085FD03C0808186FD0DC00FB607FCF7CF78
:101450008C9185FFF2CF808185FFEDCFCE010E9478
:10146000A609E9CFDF91CF910895833081F028F468
:10147000813099F08230A9F008958730A9F0883042
:10148000C9F08430B1F4809180008F7D03C08091D9
:1014900080008F7780938000089584B58F7784BD16
:1014A000089584B58F7DFBCF8091B0008F778093B6
:1014B000B00008958091B0008F7DF9CFCF93DF9376
:1014C000282F30E0F901E255FF4F8491F901E656EB
:1014D000FF4FD491F901EA57FF4FC491CC23A1F0FB
:1014E00081110E94350AEC2FF0E0EE0FFF1FE45847
:1014F000FF4FA591B491EC91ED2381E090E009F4C8
:1015000080E0DF91CF91089580E090E0FACF1F93C3
:10151000CF93DF93282F30E0F901E255FF4F8491FC
:10152000F901E656FF4FD491F901EA57FF4FC491F4
:10153000CC23A9F0162F81110E94350AEC2FF0E080
:10154000EE0FFF1FEE58FF4FA591B4918FB7F8949F
:10155000EC91111108C0D095DE23DC938FBFDF9191
:10156000CF911F910895DE2BF8CFCF93DF9390E0BA
:10157000FC01E656FF4F24918A579F4FFC0184914E
:101580008823D1F090E0880F991FFC01E859FF4FA4
:10159000A591B491FC01EE58FF4FC591D491611112
:1015A0000EC09FB7F8948C91E22FE0958E238C9318
:1015B0002881E223E8839FBFDF91CF9108958FB701
:1015C000F894EC91E22BEC938FBFF6CF3FB7F894F1
:1015D0008091D5019091D601A091D701B091D80109
:1015E00026B5A89B05C02F3F19F00196A11DB11D7E
:1015F0003FBFBA2FA92F982F8827BC01CD01620FBA
:10160000711D811D911D42E0660F771F881F991F74
:101610004A95D1F708958F929F92AF92BF92CF9241
:10162000DF92EF92FF926B017C010E94E60A4B0170
:101630005C01C114D104E104F104B9F00E94E60A8E
:10164000681979098A099B09683E734081059105EB
:1016500080F321E0C21AD108E108F10888EE880E73
:1016600083E0981EA11CB11CE4CFFF90EF90DF90A7
:10167000CF90BF90AF909F908F900895CF92DF92C0
:10168000EF92FF921F93CF93DF93182F6B0161E0CE
:101690000E94B50AC3E0D0E00D2C000CEE08FF0854
:1016A00061E0812F0E94870AC701B6010E940B0BDF
:1016B00060E0812F0E94870AC701B6010E940B0BD0
:1016C000219771F7DF91CF911F91FF90EF90DF90FD
:1016D000CF9008952091B101260F3327331F213277
:1016E0003105ECF420913802FC0190E080E02430D8
:1016F00069F082E00895A091B1012191AC014F56AB
:101700005E4FA40FB52FB11D2C930196861798F349
:101710008091B101680F6093B10180E0089581E08C
:1017200008951092380281E08093370210921202DD
:1017300061E082E10E94870A61E083E10E94870AFA
:10174000E9EBF0E080818E7F808380818D7F8083D4
:1017500088E48093B80085E48093BC000895CF931B
:10176000DF9391E0909390018823B9F0C091B80085
:10177000D091BA008091BC008A7B8093BC0060E06D
:1017800082E10E94870A60E083E10E94870A0E944A
:10179000910BD093BA00C093B800DF91CF91089518
:1017A0008F929F92AF92BF92CF92DF92EF92FF9271
:1017B0000F931F93CF93DF93D0916102D13208F042
:1017C000D7C0182FC09160020E94E60A6B017C010D
:1017D0008091380281116BC082E0809338021093AF
:1017E00037028FEF8093360210923502D093340285
:1017F000A0E4B2E0E4E1F2E080E0D81391C01092FE
:10180000130280911302CC0FC82BC0931302809156
:101810001202813009F088C0109212020E94E60A7A
:101820006B017C01809113028093BB0080913A028E
:1018300090913B02A0913C02B0913D02892B8A2BF2
:101840008B2BA1F00E94E60A00913A0210913B0214
:1018500020913C0230913D026C197D098E099F094F
:10186000061717072807390708F442C08091BC0003
:1018700083FDD8CF85EC8093BC000E94E60A6B0103
:101880007C0180913802823009F450C08091360288
:101890008F3F09F46FC080913602803209F46CC02A
:1018A00080913602803309F469C084E026C08091BB
:1018B0003A0290913B02A0913C02B0913D02892BEB
:1018C0008A2B8B2B09F484CF0E94E60A80903A027F
:1018D00090903B02A0903C02B0903D026C197D09B3
:1018E0008E099F0986169706A806B90608F070CFDC
:1018F000809139020E94AF0B85E010923F02109256
:10190000610210923E02DF91CF911F910F91FF90E3
:10191000EF90DF90CF90BF90AF909F908F90089501
:101920009D9191938F5F69CF85EEA5CF80913A020B
:1019300090913B02A0913C02B0913D02892B8A2BF1
:101940008B2B09F49ECF0E94E60A00913A02109177
:101950003B0220913C0230913D026C197D098E09B9
:101960009F09061717072807390708F08ACFC0CF45
:1019700081E0C3CF80E0C1CF82E0BFCF83E0BDCFA5
:101980000895E091F1018091F001E81730F4F0E062
:10199000EE50FE4F808190E008958FEF9FEF089505
:1019A0009091F1018091F0012FEF3FEF981748F4EB
:1019B000E92FF0E0EE50FE4F208130E09F5F9093E2
:1019C000F101C9010895CF92DF92EF92FF920F9338
:1019D0001F93CF93DF937C01CB018A0120913E02BC
:1019E000222389F0EB016B01C40ED51ECC15DD0559
:1019F00069F06991D701ED91FC910190F081E02DA2
:101A0000C7010995F3CF642F0E946A0BC801DF91CB
:101A1000CF911F910F91FF90EF90DF90CF9008959D
:101A2000CF93DF931F92CDB7DEB7698320913E023B
:101A30002223F9F020916102203258F021E030E0B9
:101A4000FC013383228390E080E00F90DF91CF91FF
:101A5000089580913F02E82FF0E0E05CFD4F99810E
:101A600090838F5F80933F028093610281E090E0DA
:101A7000ECCF61E0CE0101960E946A0BF7CFCF93C5
:101A8000C62F90918D0321E020933E029093600237
:101A900010923F0210926102682F83E093E00E944F
:101AA000100D6C2F83E093E00E94100D81E0CF9128
:101AB0000C94D00BEF92FF920F931F93CF93DF9371
:101AC000062F7A0190918D0321E020933E0290939E
:101AD000600210923F0210926102682F83E093E04F
:101AE0000E94100DE70110E0CE018E199F098017AA
:101AF000910734F4699183E093E00E94100DF4CFD4
:101B000081E0DF91CF911F910F91FF90EF900C94A6
:101B1000D00B90E080E0089580918C0190918D0130
:101B20008431910509F4C2C0A0F58F30910509F404
:101B30000BC18131910509F4E2C00A9709F08CC00C
:101B400080E190E6ACEAB1E080938801909389014E
:101B5000A0938A01B0938B0180E29EEFADEAB1E0E1
:101B60008093840190938501A0938601B0938701AF
:101B700080EB9FE6ACEAB1E0809380019093810115
:101B8000A0938201B093830188EB95E2ADEAB1E0C6
:101B90005BC08832910509F460C08035910561F120
:101BA0004E9709F059C080EC99EAAAE9B0E0809319
:101BB000880190938901A0938A01B0938B0180E6FC
:101BC00099EBAAE9B0E08093840190938501A093FA
:101BD0008601B093870180E592E9AAE9B0E080939D
:101BE000800190938101A0938201B09383018CE4E2
:101BF00094EBAAE9B0E028C088E095E8A6E3B0E05D
:101C00008093880190938901A0938A01B0938B01FE
:101C100088ED9CE8A6E3B0E0809384019093850171
:101C2000A0938601B093870180E998E9A6E3B0E02C
:101C30008093800190938101A0938201B0938301EE
:101C400088ED93E7A6E3B0E080937C0190937D015B
:101C5000A0937E01B0937F01089580ED90EFABE6F5
:101C6000B0E08093880190938901A0938A01B0939A
:101C70008B018CE499E8ABE6B0E08093840190930B
:101C80008501A0938601B093870180E790E0ACE6E0
:101C9000B0E08093800190938101A0938201B09382
:101CA000830188E896E6ABE6B0E0CECF80E990EC21
:101CB000A6EDB0E08093880190938901A0938A01FA
:101CC000B0938B0180E098EDA6EDB0E080938401A5
:101CD00090938501A0938601B093870180E390EDF6
:101CE000A6EDB0E08093800190938101A0938201E2
:101CF000B093830180EF94E1A7EDB0E0A5CF80E23F
:101D00009FE2A4E1B1E08093880190938901A093C0
:101D10008A01B0938B0180EC9EE3A4E1B1E0809353
:101D2000840190938501A0938601B09387018093ED
:101D3000800190938101A0938201B093830188E197
:101D400091E4A4E1B1E080CF80E590E9A1E4B1E0C5
:101D50008093880190938901A0938A01B0938B01AD
:101D600080E292E9A2E4B1E080938401909385013E
:101D7000A0938601B093870180EF9FE9A1E4B1E0D1
:101D80008093800190938101A0938201B09383019D
:101D900088EC90EEA1E4B1E057CFCF92DF92EF92C2
:101DA000FF920F931F93CF9390918D0321E0209387
:101DB0003E029093600210923F0210926102682FDF
:101DC00083E093E00E94100D81E00E94D00BC0914F
:101DD0008D030E94E60A6B017C018091380281111B
:101DE00065C081E080933802109237029FEF909394
:101DF00036021092350210923402809313028091C1
:101E00001302CC0FC82BC0931302809112028130B1
:101E100009F080C0109212020E94E60A6B017C0158
:101E2000809113028093BB0080913A0290913B0213
:101E3000A0913C02B0913D02892B8A2B8B2BA1F003
:101E40000E94E60A00913A0210913B0220913C0266
:101E500030913D026C197D098E099F0906171707FD
:101E60002807390708F443C08091BC0083FDD8CF10
:101E700085EC8093BC000E94E60A6B017C01809196
:101E80003802813009F448C080913502C1E08111E7
:101E900002C0C0913502E4E1F2E0A2EFB1E080E0DF
:101EA0008C1751F191919D938F5FFACF80913A02F7
:101EB00090913B02A0913C02B0913D02892B8A2B6C
:101EC0008B2B09F48ACF0E94E60A00913A02109106
:101ED0003B0220913C0230913D026C197D098E0934
:101EE0009F09061717072807390708F076CF809152
:101EF00039020E94AF0BC0E01092F101C093F001D3
:101F000080E09091F101C91749F183E093E00E94CC
:101F1000D00CF7CF85EEADCF80913A0290913B0285
:101F2000A0913C02B0913D02892B8A2B8B2B09F4A6
:101F3000A6CF0E94E60A00913A0210913B0220913E
:101F40003C0230913D026C197D098E099F090617EC
:101F500017072807390708F092CFC9CFCF911F91F3
:101F60000F91FF90EF90DF90CF9008951F93CF9344
:101F7000DF93C62F142F8A5F9E4FFC01D0818D2FD7
:101F80000E94CD0E837811118C60F0E1CF9FB001DB
:101F90001124682B8D2FDF91CF911F910C943F0D51
:101FA000CF93DF93D62FC0E1C80F8C2F0E94CD0EA8
:101FB000682FD13031F460648C2FDF91CF910C9475
:101FC0003F0D6F7BF9CFCF93DF93D82FC62F83E0E0
:101FD0000E94CD0E61E070E001C0660FDA95EAF76D
:101FE000C13039F46095682383E0DF91CF910C9480
:101FF0003F0D682BF9CFFF920F931F93CF93DF9381
:10200000EC018B01F82E80E1F80E8F2D0E94CD0E91
:10201000682F0115110581F46F7D8F2D0E943F0DF2
:10202000CC0FDD1FC15FDC4F1A870987DF91CF918D
:102030001F910F91FF9008956062EFCFCF93DF93D0
:102040008AE090E00E94B226C2E6D2E088838BE06C
:1020500090E00E94B22689838CE090E00E94B22634
:102060008A838DE090E00E94B2268B83CE01DF91BF
:10207000CF9108950F931F93CF93DF938C01EB01C2
:102080000E94B2268883C80101960E94B2268983E5
:10209000CE01DF91CF911F910F91089562EE71E013
:1020A00088E290E00E943A108091E2019091E30171
:1020B0008230910559F118F4019741F00895833069
:1020C0009105D1F1049709F451C0089580917C01E4
:1020D00090917D01A0917E01B0917F018093E501F7
:1020E0009093E601A093E701B093E80161E089E0F5
:1020F0000E94870A60E08AE00E94870A60E08BE025
:102100000E94870A60E08CE00C94870A809180012D
:1021100090918101A0918201B09183018093E501AA
:102120009093E601A093E701B093E80160E089E0B5
:102130000E94870A61E0DFCF809184019091850140
:10214000A0918601B09187018093E5019093E6010B
:10215000A093E701B093E80160E089E00E94870A5C
:1021600060E08AE00E94870A61E0C9CF809188011F
:1021700090918901A0918A01B0918B018093E50132
:102180009093E601A093E701B093E80160E089E055
:102190000E94870A60E08AE00E94870A60E08BE084
:1021A0000E94870A61E0AFCF60E089E00E94870A61
:1021B00060E08AE00E94870A60E08BE00E94870A64
:1021C00060E08CE00E94870A6FED71E082E390E0AE
:1021D0000E943A108091DF019091E00182309105D8
:1021E00051F160F40197D1F068EE73E080E090E087
:1021F0000E940B0B0E948C0D0C944E1083309105A5
:1022000029F1049789F781E190E090938D01809303
:102210008C016AEF70E08CE090E00AC088E290E008
:1022200090938D0180938C016AEF70E089E090E0DB
:102230000E943E0BD9CF8EE190E090938D01809368
:102240008C016AEF70E08AE090E0F2CF84E190E0E8
:1022500090938D0180938C016AEF70E08BE090E0A9
:10226000E7CF2F923F924F925F926F927F928F9221
:102270009F92AF92BF92CF92DF92EF92FF920F9315
:102280001F93CF93DF93CDB7DEB72E970FB6F89499
:10229000DEBF0FBECDBF19013A014B018D879E876E
:1022A0002801012B09F073C0E0917803F0917903C4
:1022B000EE0FFF1FEE0FFF1FEC57FC4FA080B18009
:1022C000C280D380CE0101967C0189019301AB01CC
:1022D0006D857E8590E080E00E94940084E190E02E
:1022E0000E94CF288C0189859A85AB85BC85F80131
:1022F0009083818339814A812B8123702283438398
:1023000034832CE0B695A795979587952A95D1F7B4
:10231000807F2D813E819F819F70892B85833683AD
:1023200027834114510409F04BC0A80168E08AE1F9
:102330000E945A0D209268033092690360926A03EA
:1023400070926B0380926C0390926D03FD85F09305
:102350006E038E8580936F03C8012E960FB6F89496
:10236000DEBF0FBECDBFDF91CF911F910F91FF90C8
:10237000EF90DF90CF90BF90AF909F908F907F9025
:102380006F905F904F903F902F900C946B29E0914D
:102390007A03F0917B03EE0FFF1FEE0FFF1FEC5748
:1023A000FC4FA080B180C280D380FE0131967F01B6
:1023B00081019A01AB016D857E8581E090E08CCF33
:1023C0004A94452849F6A80168E082E20E945A0D25
:1023D00020927003309271036092720370927303C3
:1023E0008092740390927503ED85E0937603FE85E9
:1023F000F0937703B1CF0F931F936093840370938F
:1024000085038093860390938703E8E6F3E02081B9
:102410003181428153816481758110E000E08681C1
:1024200097810E943111E0E7F3E020813181428100
:1024300053816481758101E010E0868197810E945B
:1024400031111F910F9108952F923F924F925F92F9
:102450006F927F928F929F92AF92BF92CF92DF92B4
:10246000EF92FF920F931F93CF93DF93CDB7DEB719
:102470002D970FB6F894DEBF0FBECDBF3C01C982C9
:10248000DA82EB82FC820D831E832F833887498793
:102490005A876B877C87BAA03C2C2D2C5E2C0D872D
:1024A000412E922EC984DA84EB84FC8484E190E08E
:1024B0000E94CF288C01FC01D082C182862D880F1A
:1024C000880F880F845D0E94CD0EF52DF3705F2E6E
:1024D0008C7F582AF8015282238234828CE0F69451
:1024E000E794D794C7948A95D1F7FC2DF07FCF2E2F
:1024F000892D8F70C82AF801C58246828D85878311
:1025000093E06916710409F46CC0A8F5F1E06F1648
:10251000710409F448C082E06816710409F452C0DD
:10252000A80168E08AE20E945A0D6A2D90E080E0DE
:102530000E94D00F4B2D682D90E080E00E94B60FD6
:10254000C8012D960FB6F894DEBF0FBECDBFDF9148
:10255000CF911F910F91FF90EF90DF90CF90BF90A0
:10256000AF909F908F907F906F905F904F903F9033
:102570002F900C946B2994E06916710409F440C003
:10258000E5E06E16710461F6A80168E082E50E943C
:102590005A0D6A2D85E090E00E94D00F4B2D682DDA
:1025A00085E090E0CBCFA80168E082E30E945A0D5D
:1025B0006A2D81E090E00E94D00F4B2D682D81E0C4
:1025C00090E0BCCFA80168E08AE30E945A0D6A2D12
:1025D00082E090E00E94D00F4B2D682D82E090E0C9
:1025E000ADCFA80168E082E40E945A0D6A2D83E015
:1025F00090E00E94D00F4B2D682D83E090E09ECF9D
:10260000A80168E08AE40E945A0D6A2D84E090E0F7
:102610000E94D00F4B2D682D84E090E08FCF2F9239
:102620003F924F925F926F927F928F929F92AF9262
:10263000BF92CF92DF92EF92FF920F931F93CF93AF
:10264000DF93CDB7DEB7E5970FB6F894DEBF0FBEC8
:10265000CDBFE22E29A3F32E3AA34BA35CA36DA317
:102660007EA38FA398A7702E612E9701AFEF0E94D3
:10267000B1282E373A414640510561057105810563
:10268000910509F058F480E889A38AE18AA386E0DD
:102690008BA31CA21DA21EA21FA218A629A13AA1AB
:1026A0004BA15CA16DA17EA18FA198A52115314CF4
:1026B0004A415D43654071058105910569F060F00F
:1026C00019A281EC8AA38AE18BA38DE38CA385E018
:1026D0008DA31EA21FA218A6D9A04AA05BA0ACA0E1
:1026E000EDA0FEA00FA118A5272C362C2D2D342DE2
:1026F000452D5A2DB701C8012115344E4B40544584
:10270000624071058105910509F008F425C1A8E230
:102710004A2EA3E05A2E2FE033E03AA729A78901D9
:10272000F201D12CC101880F991FDC01A85EBC4FBA
:102730007D0120813181428153816481758186814F
:10274000978138962115344E4B40544562407105AF
:102750008105910571F068F0D71459F0D8011996E8
:102760002D913C91D7018D919C912817390709F43F
:102770006AC1D3940E5F1F4FB6E0DB12DACF81013E
:1027800002571C4FF8018081811108C061E0872D3C
:10279000962D0E94E30F81E0D8018C9329A13AA1E4
:1027A0004BA15CA16DA17EA18FA198A5D101E3E011
:1027B000AA0FBB1FEA95E1F7A15FBC4FFD01799617
:1027C00059962C9331834283538364837583868324
:1027D0009783FE013D964F01A12CB12CC12CD12C29
:1027E000E12CF12C00E010E00E948F052BA73CA704
:1027F0004DA75EA76FA778AB89AB9AABC101880FD5
:10280000991F9C01215F3C4F7901D90119960D91C7
:102810001C912BA53CA589A99AA90E943111712C64
:10282000612CF7013996FDABECABD201AC9011965F
:10283000EC9011971296FC90129713960C911397A7
:1028400014961C9114971596BC91F201D680C780FE
:10285000F8E04F0E511C2A2D3E2D4F2D502F612F89
:102860007B2F8D2D9C2DA0E00E94BD2809F455C022
:10287000E9A5FAA521853285ECA9FDA98081918180
:102880002817390709F049C0A98EEA8EFB8E0C8FF4
:102890001D8FBE8FDF8EC8A2CE0149960E94A5076C
:1028A0008BAB298D3A8D4B8D5C8D6D8D7E8DCE01E0
:1028B00001964C01ABA4BCA4CDA4DEA4EFA4F8A85F
:1028C00009A91AA98F8D98A10E948F05AA24A39403
:1028D000298D3A8D4B8D5C8D6D8D7E8D8F8D98A160
:1028E0002F3F354D41415E4763407105810591059C
:1028F00009F008F4A12CAF928BA8C980DA80EB8094
:10290000FC800D811E812F81388549855A856B8514
:102910007C85C3010E9424120F90BFEF6B1A7B0AC3
:10292000E9A5FAA53296FAA7E9A7F6E06F167104B1
:1029300009F07BCFF101EE0FFF1FE15FFC4F8185B6
:10294000928560E2009719F0019721F460E881EB2D
:102950000E943F0D80E078C0D10193E0AA0FBB1F19
:102960009A95E1F7A15FBC4FFD0179965996DC92EB
:1029700041825282A382E482F58206831783810119
:1029800002571C4FD8018C91811108C061E0872D3E
:10299000962D0E94E30F81E0F8018083CE0181969D
:1029A0000E94A507582EF101EE0FFF1FE15FFC4FBB
:1029B0000184F285E02D29A13AA14BA15CA16DA172
:1029C0007EA18FA198A5EF2B51F5A0906803B09040
:1029D0006903C0906A03D0906B03E0906C03F090A1
:1029E0006D0300916E0310916F03DE011D964D0182
:1029F0000E948F051F92852CA12CCD84DE84EF844C
:102A0000F88809891A892B893C894D895E896F89E3
:102A1000788D872D962D0E9424120F909BCFA09029
:102A20007003B0907103C0907203D0907303E09074
:102A30007403F09075030091760310917703FE0103
:102A40003D964F01D5CF81E0E5960FB6F894DEBFF5
:102A50000FBECDBFDF91CF911F910F91FF90EF90EF
:102A6000DF90CF90BF90AF909F908F907F906F90AE
:102A70005F904F903F902F900895CF93DF93EC019C
:102A800088819981009711F00E946B291982188220
:102A90001D821C821B821A82DF91CF910895FC0156
:102AA00080819181009711F00C946B290895FC01AD
:102AB00024813581232B39F421E0FB018081882397
:102AC00049F020E007C0808191810E94D42A21E052
:102AD000892BB9F7822F08950F931F93CF93DF931C
:102AE0008C01EB01FC01808191810097E1F068810C
:102AF000798161157105A9F0428153812C813D8155
:102B00004217530770F00E94DD2A8C819D81F801E5
:102B1000958384831D821C82DF91CF911F910F9139
:102B200008950E946B2988819981F801918380839F
:102B30008A819B81938382838C819D819583848309
:102B4000198218821B821A82E5CF0F931F93CF93AD
:102B5000DF93EC0188819981009759F02A813B81AC
:102B60002617370730F081E0DF91CF911F910F9149
:102B700008958B016F5F7F4F0E94F429009759F0F1
:102B8000998388831B830A832C813D81232B59F7EA
:102B9000FC011082E8CF80E0E7CFEF92FF920F9325
:102BA0001F93CF93DF936115710541F480E0DF91AE
:102BB000CF911F910F91FF90EF900895411551050E
:102BC000B1F07B01EC010C811D81040F151FB801D0
:102BD0000E94A515882351F3288139818C819D811C
:102BE000B701820F931F0E94DD2A1D830C8381E0B1
:102BF000DECFCF93DF93EC01FB0101900020E9F7DA
:102C00003197AF01461B570B0E94CD15811103C0B0
:102C1000CE010E943D15CE01DF91CF910895CF9353
:102C2000DF93EC01FB0144815581608171810E9439
:102C3000CD15811103C0CE010E943D15CE01DF915B
:102C4000CF910895CF93DF9300D0CDB7DEB76983DE
:102C50001A8241E050E0BE016F5F7F4F0E94CD15A8
:102C60000F900F90DF91CF910895EF92FF920F9305
:102C70001F93CF93DF93EC017B018A01BA010E947D
:102C8000A51581110BC0CE010E943D15CE01DF912B
:102C9000CF911F910F91FF90EF9008951D830C83AA
:102CA000B701888199810E94DD2AF0CFFB01019054
:102CB0000020E9F73197AF01461B570B0C943516EE
:102CC0000F931F93CF93DF93CDB7DEB7A1970FB6C6
:102CD000F894DEBF0FBECDBF8C01CB01BA01F80165
:102CE0001182108213821282158214822AE0AE01B0
:102CF0004F5F5F4F0E946626BE016F5F7F4FC80126
:102D00000E945616A1960FB6F894DEBF0FBECDBF37
:102D1000DF91CF911F910F9108950F931F93CF9340
:102D2000DF93CDB7DEB761970FB6F894DEBF0FBE65
:102D3000CDBF8C01CB01F801118210821382128267
:102D4000158214824AE0BE016F5F7F4F0E94882681
:102D5000BE016F5F7F4FC8010E94561661960FB685
:102D6000F894DEBF0FBECDBFDF91CF911F910F91C1
:102D70000895CF93DF93EC01FB018617970749F085
:102D8000608171816115710541F0448155810E9416
:102D90003516CE01DF91CF9108950E943D15F9CFF0
:102DA000FC01118210821382128215821482FB01AF
:102DB00001900020E9F73197AF01461B570B0C94A7
:102DC0003516AF92BF92CF92DF92EF92FF920F93A0
:102DD0001F93CF93DF936C015B017A018901241764
:102DE000350720F48F2D7901042F182F63E371E04C
:102DF000C6010E94D016D5011496CD91DC91EC1637
:102E0000FD06E0F40C171D0708F4E801D501ED916B
:102E1000FC911197EC0FFD1F108110826D917C9138
:102E20006E0D7F1DC60161157105A1F00E94561639
:102E3000F50180819181C80FD91F1883C601DF91E8
:102E4000CF911F910F91FF90EF90DF90CF90BF90A7
:102E5000AF9008950E943D15EBCF85ED8093BC00A7
:102E600080913A0290913B02A0913C02B0913D02C8
:102E70000796A11DB11D23E0B695A7959795879557
:102E80002A95D1F72091BC0024FD03C0109238028E
:102E9000089540913A0250913B0260913C0270913A
:102EA0003D02452B462B472B69F30097A105B10541
:102EB00041F02AE22A95F1F700C00197A109B10972
:102EC000E1CF809139020C94AF0B2F923F924F9239
:102ED0005F926F927F928F929F92AF92BF92CF92AA
:102EE000DF92EF92FF920F931F93CF93DF93CDB7B3
:102EF000DEB7AA970FB6F894DEBF0FBECDBF63E36F
:102F000071E0CE0101960E94D0160E94380997FD0B
:102F100006C0682FCE0101960E942216F6CFBE0190
:102F20006F5F7F4F86EC93E00E946C15CE01019697
:102F30000E944F150091C6031091C703011511059A
:102F400071F0F80181918F01882349F0082E000C5F
:102F5000990B0E94B12AF80131978083F2CF63E385
:102F600071E0CE0107960E94D01662E371E0CE01B7
:102F700001960E94D016A090CA03B090CB03A11472
:102F8000B10409F467C08D809E808114910409F416
:102F900061C0EB84FC84E818F9080091C603109125
:102FA000C703E114F104A1F469817A81C8010E9488
:102FB000E42A8C01009709F44DC06F8178854B8518
:102FC0005C850E94B92A8B859C85080F191FECCF60
:102FD000F7FC0FC069807A806501C801B3010E94C7
:102FE000E42A009709F467C0880D991DCE0CDF1CF8
:102FF000F5CF680169817A81C8010E94E42A5C01E9
:10300000009721F14C01801A910AA401B801C60170
:103010000E94B92AC80CD91C6F8178854B855C85C4
:10302000C6010E94B92A8B859C85C80ED91E0D81C8
:103030001E810A0D1B1D8091CA039091CB038E0D3A
:103040009F1D9093CB038093CA03D4CFB801C601D0
:103050000E94DD2ACE0101960E944F15CE010796EF
:103060000E944F1563E371E0CE0185960E94D01651
:10307000F12CE12C10E000E08091CA039091CB0389
:10308000E816F90608F0CDC0E091C603F091C70339
:10309000309709F099C010928E01EEE8F1E060815E
:1030A0006B3309F494C0CE0185960E942216FFEF7F
:1030B000EF1AFF0AE1CFAC14BD0461F28091C8039E
:1030C0009091C9038C159D0588F4B6016F5F7F4F01
:1030D000C8010E94F429009709F4BCCF9093C7035C
:1030E0008093C603D092C903C092C8030091CA035B
:1030F0001091CB030150110917FDACCF48016D8031
:103100007E806114710409F4A5CFA090CA03B09029
:10311000CB03A114B10409F49DCFA614B70408F49D
:1031200099CF0A151B0520F04501F1E08F1A91088F
:10313000C090C603D090C70329803A80C6010FEF24
:103140001FEF2601480C591C4816590678F0B101AA
:103150000E94E42A009751F09C012C193D09821627
:10316000930608F4980101968901EECF17FD72CFFE
:10317000600E711EC601860D971DA50146195709DF
:10318000BC018E0D9F1D0E94C22A8091CA0390919E
:10319000CB038E0D9F1D9093CB038093CA03209188
:1031A000C6033091C703820F931FFC0110828091E8
:1031B000C6039091C7036F8178854B855C85800F2E
:1031C000911F0E94B92A96CFEE0DFF1D68CF60E0D7
:1031D000CE0185960115110591F40E942216BE01BB
:1031E0006B5D7F4F80EC93E00E94B91663E371E062
:1031F000CE0185960E94561601E010E058CF0E943D
:103200002216BE016B5D7F4F8AEB93E00E94B916D8
:103210000F5F1F4F63E371E0CE0185960E94561643
:1032200046CF22E030E050E040E060EC73E0CE01B9
:1032300001960E94E116BE016F5F7F4F84EB93E021
:103240000E946C15CE0101960E944F1522E030E0DD
:1032500050E040E06AEB73E0CE0101960E94E11677
:10326000BE016F5F7F4F8EEA93E00E946C15CE0126
:1032700001960E944F152091C4033091C50342E08E
:1032800050E060EC73E0CE0101960E94E116BE01B1
:103290006F5F7F4F88EA93E00E946C15CE01019624
:1032A0000E944F152091BE033091BF0342E050E0D1
:1032B0006AEB73E0CE0101960E94E116BE016F5FDA
:1032C0007F4F82EA93E00E946C15CE0101960E9426
:1032D0004F1564E371E084EB93E00E945715882357
:1032E00009F47AC063E371E088EA93E00E9457151D
:1032F000811111C08091A8039091A903009709F44E
:1033000067C00E942A266093E5017093E6018093CE
:10331000E7019093E8014091E5015091E601609149
:10332000E7017091E801CE0149960E94601667E3BB
:1033300071E0CE010D960E94D0164091E5015091AA
:10334000E6016091E7017091E801CE0107960E94C5
:1033500060168B859C852BE030E0281B390B50E0F4
:1033600040E0BE01635F7F4FCE0143960E94E116AD
:1033700064E371E0CE0101960E94D016BE016D5E3D
:103380007F4FCE0101960E940F16BE01675E7F4FF0
:103390000E940F166BE671E00E94F915BC018CE9E2
:1033A00093E00E94B916CE0101960E944F15CE01FE
:1033B00043960E944F15CE0107960E944F15CE01ED
:1033C0000D960E944F15CE0149960E944F1524C0BC
:1033D00060E070E0CB0197CF63E471E084EB93E0B1
:1033E0000E94571566E471E08111C4C16BE471E07D
:1033F00084EB93E00E945715882309F479C06EE4AA
:1034000071E08CE993E00E94561661E08DE00E9425
:10341000870A81E080938F016BE571E08EEA93E08B
:103420000E945715882331F06EE571E086E993E03C
:103430000E9456160230110509F0A1C140919A036D
:1034400050919B03609196037091970386E692E0FA
:103450000E94E80863E571E084EB93E00E94571551
:10346000882309F495C162E370E080E090E00E9457
:103470000B0B63E371E0CE0101960E94D016BE01F2
:103480006F5F7F4F8CE993E00E946C15CE0101962F
:103490000E944F1563E371E0CE0101960E94D016A1
:1034A000BE016F5F7F4F86E993E00E946C15CE01ED
:1034B00001960E944F15CE0185960E944F15AA963F
:1034C0000FB6F894DEBF0FBECDBFDF91CF911F9135
:1034D0000F91FF90EF90DF90CF90BF90AF909F90B3
:1034E0008F907F906F905F904F903F902F900895B6
:1034F00063E571E084EB93E00E945715882369F03F
:1035000066E571E08CE993E00E94561660E08DE07C
:103510000E94870A10928F017FCF6BE571E084EBE8
:1035200093E00E9457156EE571E0811123C165E6B5
:1035300071E084EB93E00E94571568E671E0811119
:1035400019C16DE671E084EB93E00E945715882362
:1035500009F405C180918F0162E070E0882309F4CD
:103560009CC0CE014F960E948D164091E50150916E
:10357000E6016091E7017091E801CE0149960E9451
:10358000601667E371E0CE010D960E94D01640915F
:10359000E5015091E6016091E7017091E801CE01EB
:1035A00007960E9460168B859C852BE030E0281BD7
:1035B000390B50E040E0BE01635F7F4FCE01439680
:1035C0000E94E1166DE671E0CE0101960E94D016D0
:1035D000BE016D5E7F4FCE0101960E940F16BE01A7
:1035E000675E7F4F0E940F166DE371E00E94F91530
:1035F00060E771E00E94F9156EE371E00E94F91531
:1036000061E471E00E94F91561E471E00E94F9152E
:1036100061E471E00E94F91560E471E00E94F9151F
:1036200062E771E00E94F915BE01615E7F4F0E9462
:103630000F1661E471E00E94F91561E471E00E94E7
:10364000F91561E471E00E94F91561E471E00E94EE
:10365000F9156FE371E00E94F9156BE671E00E94C5
:10366000F915BC018CE993E00E94B916CE010196D0
:103670000E944F15CE0143960E944F15CE0107962A
:103680000E944F15CE010D960E944F15CE0149960E
:103690000E944F15CE014F9698CECE014F960E94B4
:1036A0008D164091E5015091E6016091E70170911E
:1036B000E801CE0149960E94601667E371E0CE01F1
:1036C0000D960E94D0164091E5015091E60160915F
:1036D000E7017091E801CE0107960E9460168B8584
:1036E0009C852BE030E0281B390B50E040E0BE0108
:1036F000635F7F4FCE0143960E94E1166DE671E055
:10370000CE0101960E94D016BE016D5E7F4FCE01A4
:1037100001960E940F16BE01675E7F4F0E940F1632
:103720006DE371E00E94F91560E771E00E94F91500
:103730006EE371E00E94F91561E471E00E94F915F1
:1037400061E471E00E94F91561E471E00E94F915ED
:1037500060E471E00E94F91561E471E063CF64E711
:1037600071E084EB93E00E945715882309F454CE4E
:1037700067E771E08CE993E00E9456164DCE4091C8
:10378000A0035091A10360919C0370919D035ECEB4
:103790006BE471E084EB93E00E9456168091B403D1
:1037A0009091B503892B09F05ECE63CEFF920F9303
:1037B0001F93CF93DF93EC01F62E08811981C80186
:1037C0000E94B226F81621F06F2DC8010E94BA2679
:1037D000CE01DF91CF911F910F91FF9008951F921D
:1037E0000F920FB60F9211242F933F934F935F9335
:1037F0006F937F938F939F93AF93BF93EF93FF93B9
:1038000086E692E00E94A609FF91EF91BF91AF91E9
:103810009F918F917F916F915F914F913F912F91E8
:103820000F900FBE0F901F9018951F920F920FB61A
:103830000F9211242F938F939F93EF93FF93E09117
:103840007602F09177028081E0917C02F0917D0216
:1038500082FD1BC0908180917F028F5F8F732091CA
:103860008002821741F0E0917F02F0E0EA59FD4FBB
:10387000958F80937F02FF91EF919F918F912F9170
:103880000F900FBE0F901F9018958081F4CF1F925C
:103890000F920FB60F9211242F933F938F939F9304
:1038A000AF93BF938091EC019091ED01A091EE0157
:1038B000B091EF013091D40123E0230F2D3758F55B
:1038C0000196A11DB11D2093D4018093EC0190932A
:1038D000ED01A093EE01B093EF018091D50190919D
:1038E000D601A091D701B091D8010196A11DB11DBB
:1038F0008093D5019093D601A093D701B093D801BE
:10390000BF91AF919F918F913F912F910F900FBEDB
:103910000F901F90189526E8230F0296A11DB11D48
:10392000D2CF1F920F920FB60F9211242F933F9375
:103930004F935F936F937F938F939F93AF93BF93B7
:10394000EF93FF938091B900887F803609F44AC0D5
:10395000F0F5883209F4A7C018F5803109F49BC04E
:10396000B8F4882309F4F9C0883009F494C0FF91B1
:10397000EF91BF91AF919F918F917F916F915F91E7
:103980004F913F912F910F900FBE0F901F90189560
:10399000883109F488C0803251F78093360214C010
:1039A000803409F49DC040F48033B9F38833F9F6CC
:1039B0008093360285ECB0C0803509F485C0883527
:1039C00009F496C0883499F60E942D17D0CF883913
:1039D00009F48CC038F5883729F050F4883611F096
:1039E000803729F683E0809338021092D30157C0C4
:1039F000883809F47BC0803919F0803809F0B7CFD6
:103A00008091D301803208F071C0E091D30181E050
:103A10008E0F8093D3018091BB00F0E0ED54FE4FF8
:103A200080833DC0803B39F0E0F4803A09F479C0EE
:103A3000883A09F09CCF84E0809338021092B2015A
:103A40001092B101E091DD01F091DE0109958091C4
:103A5000B10181110FC081E08093B10110929101F9
:103A600009C0803C09F4A6CF883C09F4A3CF883B69
:103A700009F07DCFE091B20181E08E0F8093B20119
:103A8000F0E0EF56FE4F80818093BB009091B20131
:103A90008091B10129C0809113028093BB0085EC15
:103AA0008093BC0064CF90913502809134029817C6
:103AB00058F5E091350281E08E0F80933502F0E0F9
:103AC000EC5EFD4F8081E9CFE091350281E08E0F01
:103AD000809335028091BB00F0E0EC5EFD4F808367
:103AE00090913502809134029817C8F285E8D8CFBA
:103AF000E091350281E08E0F809335028091BB000A
:103B0000F0E0EC5EFD4F80838091370281115CCF45
:103B100081E08093120284EA8093BC001092380204
:103B200026CF85EC8093BC00109238028091D3019F
:103B3000803230F4E091D301F0E0ED54FE4F10827A
:103B40006091D30170E0E091DB01F091DC0183EB47
:103B500091E009951092D3010ACF1092360234CF2A
:103B6000EF92FF920F931F93CF93DF9300D0CDB7C7
:103B7000DEB78C017B019A838983FB016081CE01D2
:103B800001960E94D61B0F5F1F4F1A830983F7010E
:103B90006181CE0101960E94D61BC7010F900F9044
:103BA000DF91CF911F910F91FF90EF900895E6E67E
:103BB000F2E01382128288EE93E0A0E0B0E084830A
:103BC0009583A683B78322E131E03183208325ECFE
:103BD00030E03587248724EC30E03787268720ECD7
:103BE00030E0318B208B21EC30E0338B228B22ECC8
:103BF00030E0358B248B26EC30E0378B268B118E12
:103C0000128E138E148EE3E0F3E01382128284830B
:103C10009583A683B78384E291E09183808363E3F5
:103C200071E086EC93E00E94D01663E371E080ECD3
:103C300093E00E94D01663E371E08AEB93E00E9468
:103C4000D01663E371E084EB93E00E94D01663E347
:103C500071E08EEA93E00E94D01663E371E088EA97
:103C600093E00E94D01663E371E082EA93E00E9441
:103C7000D01663E371E08CE993E00E94D01663E311
:103C800071E086E993E00E94D016EFE0F3E085E072
:103C9000DF011D928A95E9F7158216821782108638
:103CA00080E680938D0380E498E7ADE7B1E08093F0
:103CB0007C0390937D03A0937E03B0937F031092C7
:103CC00079031092780310927B0310927A0310927A
:103CD0008C030895CF93DF93CDB7DEB762970FB60D
:103CE000F894DEBF0FBECDBF789484B5826084BDEA
:103CF00084B5816084BD85B5826085BD85B58160F0
:103D000085BD80916E00816080936E00109281006D
:103D10008091810082608093810080918100816028
:103D200080938100809180008160809380008091E9
:103D3000B10084608093B1008091B0008160809375
:103D4000B00080917A00846080937A0080917A003C
:103D5000826080937A0080917A00816080937A00FB
:103D600080917A00806880937A001092C10060E0B0
:103D700082E00E94B50A60E083E00E94B50A60E03C
:103D800084E00E94B50A61E08DE00E94B50A61E01E
:103D900089E00E94B50A61E08AE00E94B50A61E00C
:103DA0008BE00E94B50A61E08CE00E94B50A61E0F8
:103DB00088E00E94B50A60E087E00E94B50AE091C1
:103DC0007602F091770282E08083E0917202F091B6
:103DD00073021082E0917402F09175028FEC80837F
:103DE00010927E02E0917A02F0917B0286E080835D
:103DF000E0917802F0917902808180618083E09186
:103E00007802F0917902808188608083E091780265
:103E1000F0917902808180688083E0917802F0914E
:103E2000790280818F7D808384E090E0A0E0B0E023
:103E300080936A0290936B02A0936C02B0936D0220
:103E400069ED71E08EE190E00E943A108091D90115
:103E50009091DA018436910509F435C280EA96E83A
:103E6000A1E0B0E089839A83AB83BC83CE01019645
:103E70007C010AE010E06C011E830D83D7016D9177
:103E80007D01CE0105960E94D61B0F5F1F4F0E309D
:103E9000110591F784E690E09A838983B6018EE15B
:103EA00090E00E94B01D84E090E09A838983B6017F
:103EB00088E290E00E94B01D81E090E09A838983BF
:103EC000B60182E390E00E94B01D1092F1011092C1
:103ED000F00110923F02109261020E94910B85EE58
:103EE00098E09093DE018093DD0186EE98E0909358
:103EF000DC018093DB0180918D0391E090933E0281
:103F00008093600281E00E94D00B8111FEC080E0AE
:103F10000E94CD0E90E0880F892F881F990B019782
:103F2000B1F362E987EB0E943F0D80E498E7ADE7CB
:103F3000B1E080937C0390937D03A0937E03B093C4
:103F40007F0360E070E0CB010E94FB1160E880E13C
:103F50000E943F0D60E881E10E943F0D60E882E130
:103F60000E943F0D60E883E10E943F0D60E884E11C
:103F70000E943F0D60E885E10E943F0D60E886E108
:103F80000E943F0D60E887E10E943F0D6CE080E1F8
:103F90000E943F0D6CE081E10E943F0D6CE082E1E8
:103FA0000E943F0D6CE083E10E943F0D6CE084E1D4
:103FB0000E943F0D6CE085E10E943F0D6CE086E1C0
:103FC0000E943F0D6CE087E10E943F0D10E000E091
:103FD00020E030E24FE550EA62E170E080E090E0FE
:103FE0000E94311101E010E020E030E24FE550EA9C
:103FF00062E170E080E090E00E94311110921903BC
:104000001092180310921B0310921A0310921D03B2
:1040100010921C0310921F0310921E031092210392
:1040200010922003109223031092220381E090E06B
:104030009093250380932403909327038093260372
:1040400070E060E090E080E00E94FB0F70E060E0D4
:1040500081E090E00E94FB0F70E060E082E090E081
:104060000E94FB0F70E060E083E090E00E94FB0F95
:1040700070E060E084E090E00E94FB0F70E060E0A0
:1040800085E090E00E94FB0F61E070E086E090E048
:104090000E94FB0F61E070E087E090E00E94FB0F60
:1040A00060E082EA0E943F0D60E083EA0E943F0DDB
:1040B00060E084EA0E943F0D60E281EB0E943F0DC8
:1040C00060E881EB0E943F0D08E213E08EE8C82E05
:1040D00083E0D82EF12CE12CF8011082118212829B
:1040E00013821482158216821782085F1F4F60E0C8
:1040F000C7010E94E30FD6011D926D01BFEFEB1ABD
:10410000FB0AE8E0EE16F10439F760916202709163
:10411000630280916402909165020E94FB1110E09D
:1041200000E020E030E24FE550EA62E170E080E03C
:1041300090E00E94311180E10E94CD0E682F6360F3
:1041400080E10E943F0D81E10E94CD0E682F6C7FBF
:1041500081E10E943F0D82E10E94CD0E682F6C7FAD
:1041600082E10E943F0D82E10E94CD0E682F6068BF
:1041700082E10E943F0D83E00E945E0A892B09F0D4
:1041800003C160E08CE00E94870A60E08BE00E943F
:10419000870A60E08AE00E94870A60E089E00E9466
:1041A000870A03E010E061E089E00E94870A61E08D
:1041B0008CE00E94870A6AEF70E080E090E00E9445
:1041C0000B0B60E089E00E94870A60E08CE00E94AF
:1041D000870A6AEF70E080E090E00E940B0B0150CC
:1041E000110909F761E089E00E94870A61E08CE02B
:1041F0000E94870A0E941E10609162027091630201
:1042000080916402909165020E94FB1102E010E02F
:1042100020E031EE45EF55E060E070E080E090E0B6
:104220000E940F1382E10E94CD0E682F6C7F82E105
:104230000E943F0D82E10E94CD0E682F6F7782E1D0
:104240000E943F0D84E00E945E0A21E0892B09F460
:1042500020E02093E1018091E101882309F472C0FC
:1042600082E00E945E0A21E0009709F420E020939A
:10427000EA01892BB9F564E670E080E090E00E94E5
:104280000B0B82E00E945E0A21E0009709F420E017
:104290002093EA01892B31F56091620270916302EB
:1042A00080916402909165026456710981099109B7
:1042B000609362027093630280936402909365023C
:1042C0000E94FB11BFCF0E941E1062EE71E088E2D7
:1042D00090E00E943A106FED71E082E390E00E945E
:1042E0003A10F3CD83E00E945E0A21E0009709F4C2
:1042F00020E02093E901892BF1F464E670E080E08E
:1043000090E00E940B0B83E00E945E0A21E0009780
:1043100009F420E02093E901892B69F4609162029D
:104320007091630280916402909165026C597F4F95
:104330008F4F9F4FBDCF64E670E080E090E00E9419
:104340000B0B80CFB2E6EB2EB2E0FB2E0AE010E0C2
:104350001A830983D7016D917D01CE0101960E94D8
:10436000D61B0F5F1F4F0E30110591F782E10E949F
:10437000CD0E682F606882E10E943F0D6AEF70E009
:104380008DE090E00E943E0B1092800081E08093CF
:10439000810081E88093810080B7846080BF60E005
:1043A00088E00E94870A0E94D4100E948C0D0E940F
:1043B0004E1086E692E00E948609181619060CF443
:1043C000C6C08091EB018111C2C082E00E945E0AEA
:1043D0008C0181E00115110509F480E08093EA0168
:1043E00083E00E945E0A21E0009709F420E0209318
:1043F000E901012B09F0E8C1892B09F0A5C18091E1
:10440000E4018111A1C164E670E080E090E00E94C7
:104410000B0B82E00E945E0A8C0181E00115110500
:1044200009F480E08093EA0183E00E945E0A21E0C3
:10443000009709F420E02093E901012B09F0C4C1A1
:10444000892B09F081C161E08DE00E94870A6FED40
:1044500071E082E390E00E943A1060E089E00E94FF
:10446000870A60E08AE00E94870A60E08BE00E9491
:10447000870A60E08CE00E94870A8091DF019091BA
:10448000E0018230910509F40EC108F0FAC00197ED
:1044900009F402C101E010E08091E101882309F4F0
:1044A00043C18091DF019091E0018230910509F4D0
:1044B00029C108F002C1019709F413C182E00E94EA
:1044C0005E0A7C0181E0E114F10409F480E080934C
:1044D000EA0183E00E945E0A6C0181E0C114D1040C
:1044E00009F480E08093E90184E00E945E0A21E003
:1044F000892B09F420E02093E101EF2809F060C343
:10450000CD2851F264E670E080E090E00E940B0B51
:1045100082E00E945E0A21E0009709F420E02093E7
:10452000EA01892B09F0B8CF8091DF019091E00179
:1045300001979093E0018093DF01892B09F0ACCFC4
:10454000E4E0F0E0F093E001E093DF01A5CFB1E01B
:10455000B093EB010E9465176091E5017091E6014F
:104560008091E7019091E80124E630E040E050E0DE
:104570000E94A72701E010E00E940F1361E081E094
:1045800090E00E94E30F60E089E00E94870A61E00A
:104590008AE00E94870A61E08BE00E94870A60E05F
:1045A0008CE00E94870A84E00E945E0A21E0009766
:1045B00009F420E02093E101892B09F068C1809182
:1045C000E401811164C164E670E080E090E00E9443
:1045D0000B0B84E00E945E0A21E0009709F420E0C2
:1045E0002093E101892B09F052C10E944E1060E036
:1045F00088E00E94870A60E081E090E00E94E30F7B
:1046000061E08DE00E94870A6091E5017091E6010A
:104610008091E7019091E80124E630E040E050E02D
:104620000E94A72710E000E00E940F1361E090E0D5
:1046300080E00E94E30F552453945092E40184E0FB
:104640000E945E0A21E0892B09F420E02093E10119
:104650008091E101811110C184E00E945E0A21E095
:10466000892B09F420E02093E1018091EB01811175
:104670000E94651762E370E080E090E00E940B0BFF
:10468000E7CF83309105A1F0049709F003CF6AEFDB
:1046900070E08CE090E004C06AEF70E089E090E0A8
:1046A0000E943E0BF7CE6AEF70E08AE090E0F8CF10
:1046B0006AEF70E08BE090E0F3CF8330910549F131
:1046C000049709F0FBCE60E08AE00E94870A60E070
:1046D00089E00E94870A60E08BE00E94870A61E01F
:1046E0000DC061E089E00E94870A60E08AE00E94D4
:1046F000870A60E08BE00E94870A60E08CE00E94FD
:10470000870ADCCE61E08AE00E94870A60E089E0E7
:10471000EECF61E08BE00E94870A60E089E00E94B2
:10472000870A60E08AE0E7CF60E08DE00E94870AB8
:104730006FED71E082E390E00E94B01D0E94D41002
:104740008091EA01811140C08091E9018823E1F163
:104750008091E401811138C064E670E080E090E06F
:104760000E940B0B82E00E945E0A8C0181E0011521
:10477000110509F480E08093EA0183E00E945E0A5B
:1047800021E0009709F420E02093E901012BE1F4F6
:10479000892BD1F08091E2019091E30101979093F0
:1047A000E3018093E201892B39F4A4E04A2E512CD5
:1047B0005092E3014092E20162EE71E088E290E003
:1047C0000E94B01D0E944E1082E00E945E0A8C0181
:1047D00081E00115110509F480E08093EA0183E08E
:1047E0000E945E0A21E0009709F420E02093E9018D
:1047F000012B09F4D8CE892B09F0D5CE8091E401A4
:104800008111D1CE64E670E080E090E00E940B0B55
:1048100082E00E945E0A8C0181E00115110509F415
:1048200080E08093EA0183E00E945E0A21E0009725
:1048300009F420E02093E901012B09F4B4CE892B7F
:1048400009F0B1CE8091E2019091E301019690933D
:10485000E3018093E201059730F081E090E09093CE
:10486000E3018093E20162EE71E088E290E00E9451
:10487000B01D0E944E1097CE60E08DE00E94870A26
:1048800060E090E080E00E94E30F1092E401912C40
:10489000812C10928500109284008AE090E000B68E
:1048A00005FE08C0B09BFBCF01976624639466BAEF
:1048B0000097A9F700B605FC3EC0B09BFBCF01975F
:1048C0007724739476BA18161906A4F360E08DE085
:1048D0000E94870A60E090E080E00E94E30F609110
:1048E000E5017091E6018091E7019091E80124E6ED
:1048F00030E040E050E00E94A72701E010E00E9475
:104900000F1361E081E090E00E94E30F1092E40158
:1049100061E088E00E94870A80E0682E80E0782EBF
:10492000672809F446CD0E949209882309F441CDF5
:104930000E9400003ECD1816190644F6109285001C
:104940001092840000B605FE0DC0B09BFBCFAA24D8
:10495000A394A6BA00B605FE05C0B09BFBCFBB244E
:10496000B394B6BA809186009091870030E020E041
:1049700000B605FC0AC0B09BFBCF2F5F3F4FCC2495
:10498000C394C6BA2330310599F700B605FE0AC0B4
:10499000B09BFBCF2F5F3F4FDD24D394D6BA263098
:1049A00031059CF34090860050908700F12CE12C5B
:1049B00000B605FC0BC0B09BFBCF4FEFE41AF40A26
:1049C00061E066BBA3E0EA16F10491F700B605FECC
:1049D0000BC0B09BFBCFBFEFEB1AFB0AE1E0E6BBDD
:1049E000F6E0EF16F10494F34091860050918700B1
:1049F00010E000E000B605FC0AC0B09BFBCF0F5FE3
:104A00001F4F6624639466BA0330110599F700B608
:104A100005FE0AC0B09BFBCF0F5F1F4F7724739436
:104A200076BA063011059CF32090860030908700FE
:104A30004215530509F4BDC0712C612C5A01D12CCB
:104A4000C12CAF86B88AC98ADA8A032E000C440BBF
:104A5000550BA90133272227240D351D461D571D4F
:104A6000281B390B4109510960E070E18EE59FE593
:104A70000E94302759016A019701FF0C440B550B26
:104A8000A901332722278F859889A989BA89280FF8
:104A9000391F4A1F5B1F241935094609570960E071
:104AA00070E18EE59FE50E943027A20EB31EC41E62
:104AB000D51E012E000C220B330BA8013327222711
:104AC000220D331D411D511D4F84588869887A88F5
:104AD000241935094609570960E070E18EE59FE524
:104AE0000E943027C601B501620F731F841F951FF6
:104AF00023E030E040E050E00E940E2769017A0197
:104B0000D701C60180519742A109B109803E93495E
:104B1000A440B10508F0DACE8928D9F441E04093E9
:104B2000E40160E088E00E94870A61E08DE00E9475
:104B3000870A6AE070E080E090E00E940B0B60E082
:104B400081E090E00E94E30F61E090E080E00E944D
:104B5000E30F6091E5017091E6018091E70190918A
:104B6000E80124E630E040E050E00E94A72726015B
:104B70003701812C912C5401CF825886E9867A86A0
:104B80008B869C86AD86BE8656016701E12CF12C92
:104B900000E010E00E94A82810E000E00E940F133F
:104BA0008091EB0181110E94651788248394912CD8
:104BB00070CE98E8C92E93E1D92EE12CF12CA0CF2C
:104BC000CD2809F069CC64E670E080E090E00E94B6
:104BD0000B0B83E00E945E0A21E0009709F420E0BD
:104BE0002093E901892B09F057CC8091DF01909146
:104BF000E00101969093E0018093DF01059708F4AE
:104C00004BCC1093E0010093DF0146CC86E993E0A2
:104C10000E944F158CE993E00E944F1582EA93E0C1
:104C20000E944F1588EA93E00E944F158EEA93E0A8
:104C30000E944F1584EB93E00E944F158AEB93E09E
:104C40000E944F1580EC93E00E944F1586EC93E094
:104C50000C944F151F93FC0199278827BC01E894F9
:104C600011911032E9F3193010F01E30C8F31B32E5
:104C700051F01D3249F4689406C00E945126610F1C
:104C8000711D811D911D119110531A30B0F33EF426
:104C900090958095709561957F4F8F4F9F4F1F9195
:104CA0000895592F482F372F262F660F771F881FFB
:104CB000991F660F771F881F991F620F731F841F2C
:104CC000951F660F771F881F991F0895BB27FA014C
:104CD000A62F6217710581059105330B30FB66F035
:104CE000AA27660F771F881F991FAA1FA21710F007
:104CF000A21B63953850A9F7A05DAA3308F0A95DFF
:104D0000A19336F7B111B1931082CA010C94A22677
:104D1000BB27FB015527AA27880F991FAA1FA41795
:104D200010F0A41B83955051B9F7A05DAA3308F089
:104D3000A95DA193009779F7B111B1931192CB01BD
:104D40000C94A226DC01FC01672F71917723E1F717
:104D5000329704C07C916D9370836291AE17BF0748
:104D6000C8F30895F999FECF92BD81BDF89A9927AD
:104D700080B50895262FF999FECF1FBA92BD81BD47
:104D800020BD0FB6F894FA9AF99A0FBE01960895CD
:104D90002F923F924F925F926F927F928F929F924B
:104DA000AF92BF92CF92DF92EF92FF920F931F9339
:104DB000CF93DF93CDB7DEB7CA1BDB0B0FB6F894EA
:104DC000DEBF0FBECDBF09942A88398848885F842A
:104DD0006E847D848C849B84AA84B984C884DF809B
:104DE000EE80FD800C811B81AA81B981CE0FD11D7F
:104DF0000FB6F894DEBF0FBECDBFED010895A29FA0
:104E0000B001B39FC001A39F700D811D1124911D9E
:104E1000B29F700D811D1124911D0895A1E21A2EDB
:104E2000AA1BBB1BFD010DC0AA1FBB1FEE1FFF1F4E
:104E3000A217B307E407F50720F0A21BB30BE40B9E
:104E4000F50B661F771F881F991F1A9469F76095E5
:104E50007095809590959B01AC01BD01CF0108959F
:104E6000052E97FB1EF400940E94472757FD07D09C
:104E70000E940E2707FC03D04EF40C944727509550
:104E80004095309521953F4F4F4F5F4F0895909536
:104E90008095709561957F4F8F4F9F4F0895DF9359
:104EA000CF931F930F939A9DF02D219FF00D8B9D13
:104EB000F00D8A9DE02DF10D039FF00D029FE00D96
:104EC000F11D4E9DE00DF11D5E9DF00D4F9DF00D0D
:104ED0007F936F93BF92AF925F934F93D5010E94E0
:104EE000FF268B01AC01D7010E94FF26EB01E80FE2
:104EF000F91FD6010E949E272F913F91D6010E9453
:104F0000FF26C60FD71FE81FF91FAF91BF910E9460
:104F10009E272F913F910E94FF26C60FD71FE81FA3
:104F2000F91FD6010E94FF26E60FF71F9801BE0168
:104F3000CF010F911F91CF91DF9108950E94FF261D
:104F4000460F571FC81FD91F08F431960895E894DB
:104F5000DF93CF93FC01DB010E94FF267F936F93C9
:104F6000E9019A01AC01BF93AF933F932F93DF0107
:104F70000E94FF2626F46C1B7D0B820B930B9E0177
:104F8000EB01FC010E949E27AF91BF912F913F91B1
:104F90000E949E27BE01CF01F9012F913F91CF9131
:104FA000DF910895689401C0E894F92FF12B12F075
:104FB0000C940628A0E0B0E0E0EEF7E20C94CE26D8
:104FC000092E059422F40E946228112392F4F0E83D
:104FD0000F26FFEFE094F09400951095B094C094E4
:104FE000D094A194BF0ACF0ADF0AEF0AFF0A0F0B81
:104FF0001F0B0E94112807FC0E946228CDB7DEB764
:10500000ECE00C94EA26689401C0E8948F929F9299
:10501000CF93DF930E941128DF91CF919F908F90C3
:10502000089588249924F401E401B0E49F93AA2709
:105030009A158B049C04ED05FE05CF05D007A1074A
:1050400098F4AD2FDC2FCF2FFE2FE92D982C892E31
:10505000982F872F762F652F542F432F322F2227FB
:10506000B85031F7BF9127C01B2EBF91BB27220F2D
:10507000331F441F551F661F771F881F991F881CE9
:10508000991CEE1FFF1FCC1FDD1FAA1FBB1F8A1418
:105090009B04EC05FD05CE05DF05A007B10748F030
:1050A0008A189B08EC09FD09CE09DF09A00BB10B9A
:1050B00021601A94E1F62EF49401AF01BE01CD01F6
:1050C000000C089560957095809590953095409569
:1050D000509521953F4F4F4F5F4F6F4F7F4F8F4FF1
:1050E0009F4F0895002E083090F0982F872F762F2D
:1050F000652F542F432F322F22270850F4CF220F31
:10510000331F441F551F661F771F881F991F0A955D
:10511000B2F7002D089597FD1094002E083098F0F6
:105120000850232F342F452F562F672F782F892F84
:10513000912DF4CF15949795879577956795579509
:105140004795379527950A95AAF71124002D0895BC
:105150002A0D3B1D4C1D5D1D6E1D7F1D801F911F67
:1051600008950024A7FD00942A0F301D401D501DF6
:10517000601D701D801D901D08950024A7FD0094E2
:105180002A1730054005500560057005800590051B
:105190000895EE0FFF1F0590F491E02D09940F93F1
:1051A0001F93CF93DF938230910510F482E090E05B
:1051B000E091CE03F091CF0330E020E0B0E0A0E03A
:1051C000309799F42115310509F44AC0281B390B91
:1051D00024303105D8F58A819B816115710589F1EB
:1051E000FB0193838283FE0111C0408151810281C2
:1051F000138148175907E0F04817590799F4109799
:1052000061F012960C93129713961C933296CF016D
:10521000DF91CF911F910F9108950093CE031093CA
:10522000CF03F4CF2115310551F04217530738F061
:10523000A901DB019A01BD01DF01F801C1CFEF0136
:10524000F9CF9093CF038093CE03CDCFFE01E20F31
:10525000F31F819391932250310939832883D7CF4B
:105260002091CC033091CD03232B41F420910201F6
:10527000309103013093CD032093CC0320910001A2
:10528000309101012115310541F42DB73EB7409110
:10529000040150910501241B350BE091CC03F091E2
:1052A000CD03E217F307A0F42E1B3F0B2817390795
:1052B00078F0AC014E5F5F4F2417350748F04E0F72
:1052C0005F1F5093CD034093CC03819391939FCF65
:1052D000F0E0E0E09CCFCF93DF930097E9F0FC0192
:1052E000329713821282A091CE03B091CF03ED01C9
:1052F00030E020E01097A1F420813181820F931FCC
:105300002091CC033091CD032817390709F061C0F3
:10531000F093CD03E093CC03DF91CF910895EA01A0
:10532000CE17DF07E8F54A815B819E0141155105E3
:10533000B1F7E901FB83EA8349915991C40FD51F65
:10534000EC17FD0761F4808191810296840F951F0F
:10535000E90199838883828193819B838A83F0E02A
:10536000E0E012968D919C9113970097B9F52D91DD
:105370003C911197CD010296820F931F2091CC038F
:105380003091CD032817390739F6309751F510922F
:10539000CF031092CE03B093CD03A093CC03BCCF28
:1053A000D383C28340815181840F951FC817D907C9
:1053B00061F44E5F5F4F88819981480F591F518377
:1053C00040838A819B81938382832115310509F073
:1053D000B0CFF093CF03E093CE039ECFFD01DC016D
:1053E000C0CF13821282D7CFB0E0A0E0EAEFF9E29B
:1053F0000C94CA268C01009751F4CB010E94CF284F
:105400008C01C801CDB7DEB7E0E10C94E626FC01C3
:10541000E60FF71F9C0122503109E217F30708F449
:105420009DC0D901CD91DC911197C617D70798F08F
:10543000C530D10530F3CE0104978617970708F3DE
:10544000C61BD70B2297C193D1936D937C93CF0149
:105450000E946B29D6CF5B01AC1ABD0A4C018C0EA1
:105460009D1EA091CE03B091CF03512C412CF12C65
:10547000E12C109731F58091CC039091CD038815E4
:10548000990509F05CC04616570608F058C080918F
:10549000000190910101009741F48DB79EB74091B2
:1054A000040150910501841B950BE817F90708F0DA
:1054B00055C0F093CD03E093CC03F9017183608371
:1054C000A0CF8D919C91119712966C901297139684
:1054D0007C901397A815B90559F56C0142E0C40EEC
:1054E000D11CCA14DB0420F1AC014A195B09DA01B2
:1054F0001296159780F06282738251834083D9019E
:105500006D937C93E114F10471F0D7011396FC9331
:10551000EE93129776CF22968C0F9D1FF9019183FF
:105520008083F301EFCFF093CF03E093CE0369CFF5
:105530004816590608F42C017D01D3019ACFCB01FE
:105540000E94CF287C01009749F0AE01B8010E946B
:10555000B92AC8010E946B29870153CF10E000E0EF
:1055600050CF9111089581568A5108F48052855880
:105570000895FB01DC0102C001900D9241505040A2
:10558000D8F708956817790768F4FB01DC01E40F88
:10559000F51FA40FB51F02C002900E92415050405B
:1055A000D8F708950C94B92AFB01DC018D91019084
:1055B00080190110D9F3990B0895FB01DC010190CA
:1055C0000D920020E1F70895FB0151915523A9F0B8
:1055D000BF01DC014D9145174111E1F759F4CD01AF
:1055E0000190002049F04D9140154111C9F3FB0194
:1055F0004111EFCF81E090E00197089510E0C2E6FD
:10560000D0E004C0FE010E94C9282196C336D1070C
:10561000C9F7F894FFCF0000D00380002C343C443D
:105620004C545C5C00000000C809E8081509150A24
:1056300086092409780900000000100DE30C890D8B
:10564000C00C8D00D00CC10C0A0046410030303037
:105650003030303030303030005053005053313B18
:10566000005458005458303B005258005258303BB8
:105670000049440049443031393B00414900414927
:10568000303B004946002B0031004D44004D443270
:025690003B00DD
:107E0000112484B714BE81FFF0D085E080938100F7
:107E100082E08093C00088E18093C10086E0809377
:107E2000C20080E18093C4008EE0C9D0259A86E02C
:107E300020E33CEF91E0309385002093840096BBD3
:107E4000B09BFECF1D9AA8958150A9F7CC24DD24C4
:107E500088248394B5E0AB2EA1E19A2EF3E0BF2EE7
:107E6000A2D0813461F49FD0082FAFD0023811F036
:107E7000013811F484E001C083E08DD089C08234E0
:107E800011F484E103C0853419F485E0A6D080C0E4
:107E9000853579F488D0E82EFF2485D0082F10E0AE
:107EA000102F00270E291F29000F111F8ED06801E7
:107EB0006FC0863521F484E090D080E0DECF843638
:107EC00009F040C070D06FD0082F6DD080E0C81688
:107ED00080E7D80618F4F601B7BEE895C0E0D1E017
:107EE00062D089930C17E1F7F0E0CF16F0E7DF06D8
:107EF00018F0F601B7BEE89568D007B600FCFDCFD4
:107F0000A601A0E0B1E02C9130E011968C91119780
:107F100090E0982F8827822B932B1296FA010C0160
:107F200087BEE89511244E5F5F4FF1E0A038BF0790
:107F300051F7F601A7BEE89507B600FCFDCF97BE46
:107F4000E89526C08437B1F42ED02DD0F82E2BD052
:107F50003CD0F601EF2C8F010F5F1F4F84911BD097
:107F6000EA94F801C1F70894C11CD11CFA94CF0C13
:107F7000D11C0EC0853739F428D08EE10CD085E9AC
:107F80000AD08FE07ACF813511F488E018D01DD067
:107F900080E101D065CF982F8091C00085FFFCCF94
:107FA0009093C60008958091C00087FFFCCF809118
:107FB000C00084FD01C0A8958091C6000895E0E648
:107FC000F0E098E1908380830895EDDF803219F02E
:107FD00088E0F5DFFFCF84E1DECF1F93182FE3DFCA
:107FE0001150E9F7F2DF1F91089580E0E8DFEE27F6
:047FF000FF270994CA
:027FFE00040479
:00000001FF
